:020000040800F2
:1000000000200020E92E0008392F0008392F0008B1
:1000100000000000000000000000000000000000E0
:10002000000000000000000000000000392F000860
:100030000000000000000000392F0008392F0008E0
:10004000392F0008392F0008392F0008392F0008F0
:10005000392F0008392F0008392F0008392F0008E0
:10006000392F0008392F0008392F0008392F0008D0
:10007000392F0008392F0008392F0008392F0008C0
:10008000392F0008392F0008392F0008392F0008B0
:10009000392F0008392F0008392F0008392F0008A0
:1000A000392F0008392F0008392F0008392F000890
:1000B000392F0008392F0008392F0008392F000880
:1000C00080B582B000AF7860124B1B68FA229100B5
:1000D000180002F0F5FD03001A000F4B013A5A60B8
:1000E0000D4B00229A600C4B05221A6006E0C046B8
:1000F000094B1A6880235B021340F9D07B685A1EB3
:100100007A60002BF3D1044B00221A60C046BD4632
:1001100002B080BD0000002010E000E080B500AF1C
:100120000121082001F070F90D4B1A680C4B0D49A4
:100130000A401A600A4B1A68094B8021C9010A4318
:100140001A60074B5A68064B80218A435A60044B59
:10015000DA68034B03490A40DA60C046BD4680BDF9
:10016000000C0140FF3FFFFF80B500AF044B5A6910
:10017000034B80214A405A61C046BD4680BDC046FF
:10018000000C014080B500AF0121042001F03CF9D2
:10019000134B1A68124B13490A401A60104B1A6825
:1001A0000F4B802109030A431A600D4B5A680C4B10
:1001B0000D490A405A600A4BDA68094B09490A405E
:1001C000DA60074B5A6A064BF0218A435A62044BA5
:1001D0005A6A034B40210A435A62C046BD4680BD5D
:1001E00000080140FFFFF3FFFFFDFFFF80B584B073
:1001F00000AF8023DB010121180001F005F93B006D
:10020000180001F06DFB3B00962292011A603B0042
:1002100000229A803B000022DA803B0000221A81F3
:100220003B0008225A813B0000229A813B00074A8A
:100230001900100001F0B8FA044B0121180001F078
:10024000A9FBC046BD4604B080BDC0460038014091
:1002500080B582B000AF0200FB1D1A70C046094B8A
:100260008021180001F0D4FD031EF8D0FB1D1B787F
:100270009BB2044A1900100001F0C2FCC046BD4602
:1002800002B080BD0038014080B582B000AF786018
:1002900008E07B685A1C7A601B781800FFF7D8FFCB
:1002A000FFF762FF7B681B78002BF2D1C046C04687
:1002B000BD4602B080BDB0B586B000AF0200BB1D28
:1002C0001A8005237B610C23FA187B69D31800225E
:1002D0001A70BB1D1B880A21180002F02DFD0B00AF
:1002E0009BB2DBB27A69013A7A613033D9B20C251C
:1002F0007A197B69D3180A1C1A70BC1DBB1D1B8898
:100300000A21180002F0DCFC03002380BB1D1B88BF
:10031000002BDED17A197B69D3181800FFF7B4FFE0
:10032000C046BD4606B0B0BD80B582B000AF020089
:10033000BB1D1A80BB1D1B88064A5343064A9446C0
:1003400063440649180002F0BBFC03001800BD46D8
:1003500002B080BDE8800000FF070000FF0F000032
:10036000F0B587B000AF0200BB1D1A80BB1D1B8813
:100370001800FFF7D9FF03007B617B693F49180034
:1003800002F09EFC03001A0012257B191A807B697B
:100390003A49180002F0D0FC0B001A0010243B1957
:1003A0001A807B191B881800FFF785FF2E20FFF7A6
:1003B0004FFF3B191B88FA229100180002F080FCC5
:1003C00003009BB20A21180002F0B6FC0B009BB29E
:1003D000DAB20F257B1930321A703B191B88642161
:1003E000180002F06DFC03009BB20A21180002F015
:1003F000A3FC0B009BB2DAB20E26BB1930321A7086
:100400003B191B880A21180002F05AFC03009BB21A
:100410000A21180002F090FC0B009BB2DAB20D2307
:10042000FB1830321A703B191B880A21180002F0A1
:1004300083FC0B009BB2DAB20C243B1930321A70E9
:100440007B191B781800FFF703FFBB191B781800F6
:10045000FFF7FEFE0D23FB181B781800FFF7F8FED0
:100460003B191B781800FFF7F3FE054B1800FFF748
:100470000BFFC046BD4607B0F0BDC04610270000C8
:100480006C2F000880B500AF0121042000F0BCFFF4
:10049000044B1A68034B03218A431A60C046BD46C9
:1004A00080BDC0460008014080B584B000AF802305
:1004B0005B010121180000F087FF3B00180001F0EC
:1004C000D9FD3B0000221A703B0000225A703B000D
:1004D000E02212035A603B0000229A603B00012296
:1004E0001A733B000B4A1900100001F06FFD094818
:1004F00006230122002101F0BFFE064B0121180056
:1005000001F0CFFD0120FFF7DBFDC046BD4604B082
:1005100080BDC0460008024080B500AF0C4B0121F1
:10052000180001F028FEC046094B0221180002F015
:10053000EEF9031EF8D0064B0221180002F007FA6C
:10054000034B180001F08AFF03001800BD4680BD70
:100550000008024090B583B000AF00F039F800F019
:1005600077F8FFF7DBFDFFF70DFEFFF73FFEFFF724
:1005700089FFFFF799FF124B1800FFF785FEBC1D9E
:10058000FFF7CAFF030023800E4B1800FFF77CFE25
:10059000BB1D1B881800FFF78EFE0B4B1800FFF7E2
:1005A00073FEBB1D1B881800FFF7DAFE074B18000F
:1005B000FFF76AFE6420FFF783FDC046DFE7C04611
:1005C000702F0008982F0008A02F0008A82F0008FF
:1005D00080B500AF184B1A68174B01210A431A6007
:1005E000154B5A68144B15490A405A60124B1A6849
:1005F000114B13490A401A600F4B1A680E4B1149F0
:100600000A401A600C4B5A680B4B0F490A405A605B
:10061000094BE0229201DA62074BBF2212049A6072
:100620000A4B1A68094B10210A431A6000F0F3F8CC
:10063000C046BD4680BDC046001002400000FF21FC
:10064000FFFFF6FEFFFFBFFFFFFF00FE002002409E
:1006500080B586B000AF00237B6100233B6100239F
:10066000FB600023BB6000237B60544B5B68544AF3
:1006700013407B617A6980231B029A4200D182E099
:100680007A6980231B029A4200D980E07B694D4A37
:10069000934200D172E07B694A4A934200D976E0E6
:1006A0007A698023DB019A4213D07A698023DB01C7
:1006B0009A426CD87B69002B03D07B69082B04D04D
:1006C00065E0414B414A1A6065E03F4B3F4A1A6082
:1006D00061E03A4B5A68F0231B0313403B61374BF0
:1006E0005A68C0239B031340FB60344B5A68C023F5
:1006F0001B041340BB60314B5A6880235B041340DA
:100700007B603B691B0C03333B617B681B0E0CD188
:1007100039690A005201521A93019B1ADB005B18D7
:100720005B021A00284B1A600BE039690A0052017B
:10073000521A93019B1ADB005B185B021A00224BD2
:100740001A60FB681B0D0133FB601F4B1B68F968C7
:10075000180002F0B5FA03001A001B4B1A60BB68C0
:100760009B0D0133BB60184B1B68B968180002F081
:10077000A7FA03001A00144B1A600CE0124B8022F7
:1007800012021A6007E0104B114A1A6003E00E4B88
:100790000E4A1A60C046094B5B681B090F221340C2
:1007A0000C4AD35C7B61084B1A687B69DA40064BC4
:1007B0001A60C046BD4606B080BDC046001002406B
:1007C00008C00000084000000000002000127A006D
:1007D00030750000AC2F000880B584B000AF7860A1
:1007E0000023FB600023BB600CE0C823DB00FB6040
:1007F00002E0FB68013BFB60FB68002BF9D1BB68A2
:100800000133BB60BA687B689A42EED3C046C046EB
:10081000BD4604B080BD80B584B000AF0023BB608E
:100820000023FB60FB1D00221A70444B1A68434BE7
:10083000802149020A431A600A20FFF7CDFF3F4B8F
:100840001A6880239B021A40FB1D511E8A411A70B0
:10085000FB680133FB60FB1D1B7801225340DBB2B8
:10086000002B04D0FA6880239B019A42E7D1334BD6
:100870001A6880239B021A40FB1D511E8A411A7080
:10088000FB1D1B7801225340DBB2002B03D02C4B05
:100890002C4A1A604EE02C4B1A682B4B03218A43DA
:1008A0001A60294B1A68284B02210A431A60234A0E
:1008B000224B52685A60214B5A68204B23490A4008
:1008C0005A601E4B5A681D4B21490A405A601B4B07
:1008D0005B68BB60BB68802252041343BB60BB688B
:1008E000C02292021343BB60144BBA685A60134B88
:1008F0001A68124B802149040A431A60C0460F4B04
:100900001A6880239B041340F9D00C4B5A680B4B98
:1009100007218A435A60094B5A68084B02210A434F
:100920005A60C046054B5B680A4A1A408023DB01C7
:100930009A42F7D1BD4604B080BDC04600100240C7
:100940000000002000127A0000200240FFFF3FFF5D
:10095000FFFFC0FE08C0000080B500AF144B1A684E
:10096000134B01210A431A60114B5A68104B11496D
:100970000A405A600E4B1A680D4B0F490A401A6024
:100980000B4B1A680A4B0D490A401A60084B5A680B
:10099000074B0B490A405A60054BE0229201DA628C
:1009A000034BBF2212049A60C046BD4680BDC046BC
:1009B000001002400000FF21FFFFF6FEFFFFBFFF17
:1009C000FFFF00FE80B582B000AF7860154B1A685B
:1009D000144B15490A401A60124B1A68114B1349FF
:1009E0000A401A607A6880235B029A4205D07A68CE
:1009F0008023DB029A4208D00FE00A4B1A68094BA9
:100A0000802149020A431A6007E0064B1A68054B29
:100A1000A021C9020A431A60C046C046BD4602B0C2
:100A200080BDC04600100240FFFFFEFFFFFFFBFF3E
:100A300090B583B000AF00233B60FB1D00221A700D
:100A4000BB1D00221A70BC1D312000F0D7FD030031
:100A500023703B6801333B603A6880239B019A42D4
:100A600003D0BB1D1B78002BEDD0312000F0C6FD5C
:100A7000031E03D0FB1D01221A7002E0FB1D0022A1
:100A80001A70FB1D1B781800BD4603B090BD80B5E1
:100A900082B000AF78600A4B1A68094B01218A4383
:100AA0001A607B68012B06D1054B1A68044B0121A3
:100AB0000A431A6000E0C046C046BD4602B080BD91
:100AC0000010024090B583B000AF00233B60FB1DD7
:100AD00000221A70BB1D00221A70BC1D212000F0DC
:100AE0008DFD030023703B6801333B603A68A0230F
:100AF000DB009A4203D0BB1D1B78002BEDD02120D8
:100B000000F07CFD031E03D0FB1D01221A7002E0E1
:100B1000FB1D00221A70FB1D1B781800BD4603B098
:100B200090BD80B584B000AF0200FB1D1A70002399
:100B3000FB600A4B1B68FB60FB68F8229343FB6079
:100B4000FB1D1B78DB00FA681343FB60034BFA685C
:100B50001A60C046BD4604B080BDC04600100240C9
:100B600080B582B000AF0200FB1D1A70FB1D1B7820
:100B7000012B06D1084B1A68074B01210A431A6062
:100B800005E0054B1A68044B01218A431A60C046F0
:100B9000BD4602B080BDC0460010024080B586B0A0
:100BA00000AFF860B9607A603B6000237B6100238E
:100BB0003B611B4B5A681A4B1A490A405A60184B42
:100BC0005B687B617B69184A13407B61FB68002B83
:100BD00004D0FA6880235B049A420AD1FA68BB68A1
:100BE0001A437B681A433B6813437A6913437B615A
:100BF0000EE00B4B1B683B617A693B6813437B61DA
:100C00003B698022D20313433B61054B3A691A606A
:100C1000034B7A695A60C046BD4606B080BDC046E7
:100C200000100240FFFF3FFFFFFFC0FE80B582B013
:100C300000AF0200FB1D1A70FB1D1B78012B07D1B2
:100C4000084B1A68074B802149040A431A6005E0E3
:100C5000044B1A68034B04490A401A60C046BD465B
:100C600002B080BD00100240FFFFFFFE80B582B0E1
:100C700000AF0200FB1D1A70FB1D1B78012B07D172
:100C8000084B1A68074B802109040A431A6005E0E3
:100C9000044B1A68034B04490A401A60C046BD461B
:100CA00002B080BD00100240FFFF7FFF80B584B01E
:100CB00000AF78600023FB60084B5B68FB60FB685B
:100CC00007229343FB60FA687B681343FB60034B86
:100CD000FA685A60C046BD4604B080BD00100240AC
:100CE00080B500AF034B5B68034A13401800BD4654
:100CF00080BDC0460010024008C0000080B584B02E
:100D000000AF78600023FB60084B5B68FB60FB680A
:100D1000F0229343FB60FA687B681343FB60034B4C
:100D2000FA685A60C046BD4604B080BD001002405B
:100D300080B584B000AF78600023FB60084B5B682F
:100D4000FB60FB68074A1340FB60FA687B6813434B
:100D5000FB60034BFA685A60C046BD4604B080BDD4
:100D600000100240FFF8FFFF80B584B000AF78604C
:100D70000023FB60094B5B68FB60FB68084A13407B
:100D8000FB607B68DB00FA681343FB60034BFA6887
:100D90005A60C046BD4604B080BDC0460010024047
:100DA000FFC7FFFF80B582B000AF0200FB1D1A70C5
:100DB000BB1D0A1C1A70BB1D1B78002B08D00B4BE7
:100DC0001968FB1D1B781A02084B0A431A6008E0D9
:100DD000064B1A68FB1D1B781B02D943034B0A40C4
:100DE0001A60C046BD4602B080BDC0460810024031
:100DF00080B584B000AF78600023FB60084BDB6AED
:100E0000FB60FB685B005B08FB60FA687B68134370
:100E1000FB60034BFA68DA62C046BD4604B080BD91
:100E20000010024080B584B000AF786039600023C4
:100E3000FB600D4BDB6AFB60FB680C4A1340FB60F8
:100E4000FB680B4A1340FB60FA687B681343FB6046
:100E5000FA683B681343FB60034BFA68DA62C046EA
:100E6000BD4604B080BDC04600100240FFFBFFFF3E
:100E7000FF07FFFF80B584B000AF78600A00FB1C5D
:100E80001A700023FB600D4BDB6AFB60FB680C4AA9
:100E90001340FB60FB1C1B78002B04D0FA687B68B6
:100EA0001343FB6003E0FB68064A1340FB60034BFF
:100EB000FA68DA62C046BD4604B080BD0010024048
:100EC0000FFEFFFFFFFEFFFF80B584B000AF78602C
:100ED0000023FB60084BDB6AFB60FB680F22934337
:100EE000FB60FA687B681343FB60034BFA68DA62C5
:100EF000C046BD4604B080BD0010024080B582B03F
:100F000000AF7860074BDA6A064B07490A40DA629D
:100F1000044BD96A034B7A680A43DA62C046BD467D
:100F200002B080BD00100240FFFF1FFF80B500AF80
:100F3000034BDA6AE0231B0413401800BD4680BD52
:100F40000010024080B582B000AF7860084BDA6ACA
:100F5000074B08490A40DA62054BD96A7B685A0692
:100F6000034B0A43DA62C046BD4602B080BDC046AC
:100F700000100240FFFFFFF180B500AF034BDB6ABA
:100F80005B0E072213401800BD4680BD00100240D2
:100F900080B584B000AF0200FB1D1A700023FB6017
:100FA000104B1B68FB60FB680F4A1340FB60FB1D86
:100FB0001B78032B03D9FB1D03221A7005E0FB1DD0
:100FC000FA1D127803210A401A70FB1D1B785B0280
:100FD000FA681343FB60034BFA681A60C046BD46CB
:100FE00004B080BD08180040FFF9FFFF80B582B053
:100FF00000AF0200FB1D1A70BB1D0A1C1A70124BB9
:101000001A68114B14218A431A60FB1D1B78042BAC
:1010100002D0102B0CD012E00B4B1A680A4B0421A3
:101020000A431A60BB1D1B781800FFF7B1FF06E0EA
:10103000054B1A68044B10210A431A60C046C0468B
:10104000BD4602B080BDC0462010024080B582B0CF
:1010500000AF0200FB1D1A70FB1D1B78012B06D18F
:10106000084B1A68074B01210A431A6005E0054B3B
:101070001A68044B01218A431A60C046BD4602B07B
:1010800080BDC0462010024080B582B000AF7860BD
:10109000074B1A6A064B60218A431A62044B196A8D
:1010A000034B7A680A431A62C046BD4602B080BD4F
:1010B0000010024080B500AF034B1B6A6022134052
:1010C0001800BD4680BDC0460010024080B582B009
:1010D00000AF0200FB1D1A70FB1D1B78012B06D10F
:1010E000084B1A68074B80210A431A6005E0054B3C
:1010F0001A68044B80218A431A60C046BD4602B07C
:1011000080BDC0462010024080B582B000AF020012
:10111000FB1D1A70FB1D1B78002B07D0084B1A6AA9
:10112000074B802149000A431A6205E0044B1A6A02
:10113000034B04490A401A62C046BD4602B080BD56
:1011400000100240FFFEFFFF80B582B000AF786064
:10115000074B1A6A064B07490A401A62044B196A80
:10116000034B7A680A431A62C046BD4602B080BD8E
:1011700000100240FFFDFFFF80B500AF034B1A6A6D
:1011800080239B0013401800BD4680BD0010024024
:1011900080B58AB000AF786000237B6200233B6299
:1011A0000023FB610023BB6100237B6100233B61C3
:1011B0000023FB607C4B5A68F0231B031340FB6148
:1011C000794B5A68C0239B031340BB61764B5A6826
:1011D000C0231B0413407B61734B5A6880235B045C
:1011E00013403B61FB691B0C0333FB613B691B0E26
:1011F0000AD1F9690A005201521A93019B1ADB00C5
:101200005B185B023B6209E0F9690A005201521A5D
:1012100093019B1ADB005B185B023B62BB691B0DF1
:101220000133BB61B969386A01F04AFD03003B62D2
:101230007B699B0D01337B617969386A01F040FD60
:1012400003003B62584B5B68584A13407B627A6AE2
:1012500080231B029A422ED07A6A80231B029A4274
:101260002DD87B6A524A934220D07B6A504A9342DF
:1012700025D87A6A8023DB019A4213D07A6A8023C8
:10128000DB019A421BD87B6A002B03D07B6A082BB8
:1012900004D014E07B68474A1A6014E07B68454A32
:1012A0001A6010E07B683A6A1A600CE07B68802262
:1012B00012021A6007E07B683F4A1A6003E07B680D
:1012C0003C4A1A60C046384B5B68F02213407B6290
:1012D0007B6A1B097B627B6A072B01D800237B6238
:1012E000364A7B6AD3181B78FB607B681A68FB68F8
:1012F000DA407B685A602C4B5A68E023DB001340CD
:101300007B627B6A1B0A7B622C4A7B6AD3181B7840
:10131000FB607B685A68FB68DA407B689A60224B06
:101320005A68E0239B0113407B627B6ADB0A7B6285
:10133000224A7B6AD3181B78FB607B685A68FB687B
:10134000DA407B68DA60184BDB6A0F2213407B625D
:101350001B4A7B6AD3181B78FB607B685B68F96863
:10136000180001F0ADFC03001A007B685A610E4BB7
:10137000DA6AF8235B0013407B627B6A1B097B629D
:101380007B6A0F221A400F4B5200D35AFB60F96858
:10139000386A01F095FC03001A007B681A61C046A8
:1013A000BD460AB080BDC0460010024008C0000023
:1013B0000840000000127A0030750000BC2F0008C1
:1013C000CC2F0008DC2F000880B582B000AF786019
:1013D0000A00FB1C1A70FB1C1B78002B06D0094B63
:1013E0005969084B7A680A435A6106E0054B5A6905
:1013F0007B68D943034B0A405A61C046BD4602B0E0
:1014000080BDC0460010024080B582B000AF786059
:101410000A00FB1C1A70FB1C1B78002B06D0094B22
:101420009969084B7A680A439A6106E0054B9A6904
:101430007B68D943034B0A409A61C046BD4602B05F
:1014400080BDC0460010024080B582B000AF786019
:101450000A00FB1C1A70FB1C1B78002B06D0094BE2
:10146000D969084B7A680A43DA6106E0054BDA6904
:101470007B68D943034B0A40DA61C046BD4602B0DF
:1014800080BDC0460010024080B582B000AF7860D9
:101490000A00FB1C1A70FB1C1B78002B06D0094BA2
:1014A000996A084B7A680A439A6206E0054B9A6A81
:1014B0007B68D943034B0A409A62C046BD4602B0DE
:1014C00080BDC0460010024080B582B000AF786099
:1014D0000A00FB1C1A70FB1C1B78002B06D0094B62
:1014E000D968084B7A680A43DA6006E0054BDA6887
:1014F0007B68D943034B0A40DA60C046BD4602B060
:1015000080BDC0460010024080B582B000AF786058
:101510000A00FB1C1A70FB1C1B78002B06D0094B21
:101520001969084B7A680A431A6106E0054B1A6983
:101530007B68D943034B0A401A61C046BD4602B0DE
:1015400080BDC0460010024080B582B000AF0200EE
:10155000FB1D1A70FB1D1B78002B07D0094B1A6866
:10156000084B802109030A431A6006E0054B1968FD
:10157000044B802212030A401A60C046BD4602B0E6
:1015800080BDC0460010024080B584B000AF7860D6
:101590000023FB60084B5B68FB60FB681B011B09B9
:1015A000FB60FA687B681343FB60034BFA685A6080
:1015B000C046BD4604B080BD0010024080B584B076
:1015C00000AF0200FB1D1A700023FB60094B5B6833
:1015D000FB60FB68084A1340FB60FB1D1B785B0641
:1015E000FA681343FB60034BFA685A60C046BD4675
:1015F00004B080BD00100240FFFFFFF180B586B04F
:1016000000AF0200FB1D1A700023FB6000237B610A
:101610001323FB1800221A70FB1D1B785B09DBB239
:10162000FB60FB68012B03D1144B1B687B6109E055
:10163000FB68022B03D1114B1B6A7B6102E00F4B4D
:101640005B6A7B61FB1D1B781F221340FB607A697C
:10165000FB68DA4013000122134004D01323FB1867
:1016600001221A7003E01323FB1800221A701323BF
:10167000FB181B781800BD4606B080BD0010024064
:1016800080B500AF074B5A6A064B01210A435A62E4
:10169000044B5A6A034B01218A435A62C046BD4635
:1016A00080BDC0460010024080B584B000AF02008B
:1016B000FB1D1A700F217B1800221A700A4B9B68C1
:1016C000FA1D1278134003D07B1801221A7003E030
:1016D0000F23FB1800221A700F23FB181B78180029
:1016E000BD4604B080BDC0460010024080B582B047
:1016F00000AF7860044B9968034B7A680A439A609C
:10170000C046BD4602B080BD0010024080B582B028
:1017100000AF0200FB1D1A70FB1D1B78012B07D1C7
:10172000084B9A68074B8021C9010A439A6005E07B
:10173000044B9A68034B04490A409A60C046BD4670
:1017400002B080BD00100240FFBFFFFF80B582B035
:1017500000AF78607B68124A93420CD18023DB0192
:1017600001211800FFF7B0FE8023DB0100211800E3
:10177000FFF7AAFE0FE07B680A4A93420BD1802351
:101780009B0201211800FFF7BFFE80239B0200216E
:101790001800FFF7B9FEC046BD4602B080BDC04686
:1017A000003801400044004090B58FB000AF786031
:1017B000396000233B6300237B630023FB6200232B
:1017C000BB6200237B627B687B627B681B8A9BB267
:1017D0003B633B6B3E4A13403B633B68DB881A002C
:1017E0003B6B13433B633B6B9AB27B681A827B680B
:1017F0009B899BB23B633B6B364A13403B633B6820
:101800009A883B681B8913439AB23B685B891343F0
:101810009BB21A003B6B13433B633B6B9AB27B68F2
:101820009A817B689B8A9BB23B633B6B2A4A13403D
:101830003B633B689B891A003B6B13433B633B6BE9
:101840009AB27B689A820C243B191800FFF7A0FC1F
:101850007B6A224A934203D13B19DB687B6303E036
:101860000C23FB189B687B637A6B13009B009B180F
:101870009A009A183B681B689B001900100001F041
:101880001FFA0300FB62FB6A6421180001F018FADA
:1018900003001B013B633B6B1B0964225343FA6A41
:1018A000D31ABB62BB6A1B0132336421180001F0FA
:1018B00007FA03001A000F2313403A6B13433B63EC
:1018C0003B6B9AB27B681A81C046BD460FB090BD93
:1018D000FFCF0000F3E90000FFFC000000380140EA
:1018E00080B582B000AF78607B68962292011A6062
:1018F0007B6800229A807B680022DA807B68002265
:101900001A817B680C225A817B6800229A81C0462A
:10191000BD4602B080BD80B584B000AF786039604C
:101920000023FB607B681B8A9BB2FB60FB680E4A4E
:101930001340FB603B681A883B685B8813439AB28C
:101940003B689B8813439AB23B68DB8813439BB286
:101950001A00FB681343FB60FB689AB27B681A822B
:10196000C046BD4604B080BDFFF0000080B582B027
:1019700000AF78607B6800221A807B6800225A8062
:101980007B6800229A807B680022DA80C046BD46D0
:1019900002B080BD80B582B000AF78600A00FB1C49
:1019A0001A70FB1C1B78002B09D07B689B899BB2AB
:1019B0008022920113439AB27B689A8107E07B6888
:1019C0009B899BB2044A13409AB27B689A81C046B5
:1019D000BD4602B080BDC046FFDFFFFF80B586B0C8
:1019E00000AF786008001100BB1C021C1A807B1C31
:1019F0000A1C1A7000233B610023FB600023BB60BC
:101A000000237B617B687B61BB1C1B88DBB25B09AD
:101A1000DBB23B61BB1C1B881F221340FB60012211
:101A2000FB689A401300BB603B69012B03D17B69C3
:101A30000C337B6109E03B69022B03D17B691033D6
:101A40007B6102E07B6914337B617B1C1B78002B7C
:101A500006D07B6919687B69BA680A431A6006E098
:101A60007B691A68BB68D9437B690A401A60C04623
:101A7000BD4606B080BD80B582B000AF786008007A
:101A80001100BB1C021C1A807B1C0A1C1A707B1CD8
:101A90001B78002B09D07B689B8A9AB2BB1C1B88E1
:101AA00013439AB27B689A820AE07B689B8A9BB256
:101AB000BA1C1288D24392B213409AB27B689A82BF
:101AC000C046BD4602B080BD80B582B000AF786030
:101AD0000A00FB1C1A707B681B8A9BB20F2293437F
:101AE0009AB27B681A827B681B8A9AB2FB1C1B78AD
:101AF0009BB213439AB27B681A82C046BD4602B0BD
:101B000080BD80B582B000AF78600A00BB1C1A802F
:101B10007B689B899BB2094A13409AB27B689A8181
:101B20007B689B899AB2BB1C1B8813439AB27B6863
:101B30009A81C046BD4602B080BDC046FFF7FFFF98
:101B400080B582B000AF78600A00FB1C1A70FB1CE5
:101B50001B78002B08D07B689B899BB20222134321
:101B60009AB27B689A8107E07B689B899BB20222CC
:101B700093439AB27B689A81C046BD4602B080BD4D
:101B800080B582B000AF78600A00BB1C1A807B6809
:101B90001B8A9BB2202293439AB27B681A827B688D
:101BA0001B8A9AB2BB1C1B8813439AB27B681A82A9
:101BB000C046BD4602B080BD80B582B000AF78603F
:101BC0000A00FB1C1A70FB1C1B78002B09D07B68D9
:101BD0001B8A9BB28022D20113439AB27B681A827D
:101BE00007E07B681B8A9BB2044A13409AB27B6869
:101BF0001A82C046BD4602B080BDC046FFBFFFFF8F
:101C000080B582B000AF78600A00BB1C1A80BB1C94
:101C10001B88DB05DB0D9AB27B689A80C046BD4607
:101C200002B080BD80B582B000AF78607B689B88D1
:101C30009BB2DB05DB0D9BB21800BD4602B080BD38
:101C400080B582B000AF78607B689B899BB201222F
:101C500013439AB27B689A81C046BD4602B080BDEC
:101C600080B582B000AF78600A00FB1C1A707B68F8
:101C70001B8B9BB2FF2213409AB27B681A837B684E
:101C80001B8B9AB2FB1C1B789BB21B029BB21343AB
:101C90009AB27B681A83C046BD4602B080BD80B54B
:101CA00082B000AF78600A00FB1C1A707B681B8B47
:101CB0009BB2FF2293439AB27B681A837B681B8B8B
:101CC0009AB2FB1C1B789BB213439AB27B681A83AF
:101CD000C046BD4602B080BD80B582B000AF78601E
:101CE0000A00FB1C1A70FB1C1B78002B08D07B68B9
:101CF0009B8A9BB2202213439AB27B689A8207E0A8
:101D00007B689B8A9BB2202293439AB27B689A821B
:101D1000C046BD4602B080BD80B582B000AF7860DD
:101D20000A00FB1C1A70FB1C1B78002B08D07B6878
:101D30009B8A9BB2102213439AB27B689A8207E077
:101D40007B689B8A9BB2102293439AB27B689A82EB
:101D5000C046BD4602B080BD80B582B000AF78609D
:101D60000A00FB1C1A70FB1C1B78002B08D07B6838
:101D70009B8A9BB2082213439AB27B689A8207E03F
:101D80007B689B8A9BB2082293439AB27B689A82B3
:101D9000C046BD4602B080BD80B582B000AF78605D
:101DA0000A00BB1C1A807B689B8A9BB20422934367
:101DB0009AB27B689A827B689B8A9AB2BB1C1B880A
:101DC00013439AB27B689A82C046BD4602B080BD7A
:101DD00080B582B000AF78600A00FB1C1A70FB1C53
:101DE0001B78002B08D07B689B8A9BB2022213438E
:101DF0009AB27B689A8207E07B689B8A9BB2022238
:101E000093439AB27B689A82C046BD4602B080BDB9
:101E100080B584B000AF78600A00BB1C1A800F2127
:101E20007B1800221A707B681B889BB2BA1C128830
:101E300013409BB2002B03D07B1801221A7003E0E1
:101E40000F23FB1800221A700F23FB181B781800B1
:101E5000BD4604B080BD80B582B000AF78600A0096
:101E6000BB1C1A80BB1C1B88DB439BB29B059B0DD4
:101E70009AB27B681A80C046BD4602B080BD80B56C
:101E800086B000AF78600A00BB1C1A800023FB609C
:101E900000237B610023BB601323FB1800221A7010
:101EA000BB1C1B88DBB25B09DBB2BB60BB1C1B88A5
:101EB0001F2213407B6101227B699A4013007B61E2
:101EC000BB68012B07D17B689B899BB21A007B6999
:101ED00013407B6111E0BB68022B07D17B681B8A32
:101EE0009BB21A007B6913407B6106E07B689B8A8A
:101EF0009BB21A007B6913407B61BB1C1B881B0AC9
:101F00009BB2FB600122FB689A401300FB607B6878
:101F10001B889BB21A00FB681340FB607B69002B97
:101F200007D0FB68002B04D01323FB1801221A7082
:101F300003E01323FB1800221A701323FB181B78ED
:101F40001800BD4606B080BD80B584B000AF786093
:101F50000A00BB1C1A800E217B1800221A800C205C
:101F60003B1800221A807B18BA1C1288120A1A80A9
:101F70007B181B8801229A403B181A803B181B884B
:101F8000DB439BB29B059B0D9AB27B681A80C046CF
:101F9000BD4604B080BDC04680B582B000AF786059
:101FA0007B68094A93420BD180235B010121180011
:101FB000FFF76AFA80235B0100211800FFF764FA3B
:101FC000C046BD4602B080BD0008024080B584B066
:101FD00000AF786039600023FB600B203B180022C3
:101FE0001A707B685B68FB60FB681F4A1340FB60EC
:101FF0003B681B781B02FA681343FB607B68FA6836
:102000005A607B689B68FB60FB68184A1340FB6062
:102010003B689A683B685B681A433B685B785B0087
:102020001343FA681343FB607B68FA689A607B6825
:102030001B6BFB60FB680E4A1340FB603B681B7B1D
:10204000013BD9B23B183A1812780A431A703B1870
:102050001B781B05FA681343FB607B68FA681A63F8
:10206000C046BD4604B080BDFFFEFFFFFDF7F1FF97
:10207000FFFF0FFF80B582B000AF78607B68002261
:102080001A707B6800225A707B6800225A607B6855
:1020900000229A607B6801221A73C046BD4602B0D6
:1020A00080BD80B582B000AF78600A00FB1C1A705A
:1020B000FB1C1B78002B06D07B689B6801221A430F
:1020C0007B689A6006E07B689B68012293431A0054
:1020D0007B689A60C046BD4602B080BD80B582B0C4
:1020E00000AF78600A00FB1C1A70FB1C1B78002BE9
:1020F00007D07B689B68802252001A437B689A60F5
:1021000005E07B689B68044A1A407B689A60C04679
:10211000BD4602B080BDC046FFFEFFFF80B584B063
:1021200000AF786008001100BB1C021C1A807B1CE9
:102130000A1C1A700F217B1800221A707B18BA1C17
:1021400012881A707B1C1B78002B07D07B685A689A
:102150007B181B781A437B685A6008E07B685B68D1
:102160000F22BA181278D2431A407B685A60C046D0
:10217000BD4604B080BD80B582B000AF78600A0073
:10218000FB1C1A70FB1C1B78002B07D07B689B681C
:10219000A022D2031A437B689A6005E07B689B68A3
:1021A000034A1A407B689A60C046BD4602B080BDB3
:1021B000FFFFAFFF80B584B000AF78600F217B18C0
:1021C00000221A707B689A688023DB03134003D0D7
:1021D0007B1801221A7003E00F23FB1800221A70EB
:1021E0000F23FB181B781800BD4604B080BD80B5D6
:1021F00084B000AF78600A00FB1C1A700023FB60FB
:102200000023BB607B685B68FB60FB68094A134086
:10221000FB60FB1C1B78013BBB60BB685B03FA687F
:102220001343FB607B68FA685A60C046BD4604B041
:1022300080BDC046FF1FFFFF80B582B000AF786051
:102240000A00FB1C1A70FB1C1B78002B07D07B6854
:102250005B68802212011A437B685A6005E07B6844
:102260005B68044A1A407B685A60C046BD4602B0AB
:1022700080BDC046FFF7FFFF90B585B000AF786026
:102280000C0010001900FB1C221C1A70BB1C021C45
:102290001A707B1C0A1C1A700023FB600023BB60B1
:1022A000FB1C1B78072B20D97B681B69FB60FB1C80
:1022B0001B78083B9B000F229A401300BB60BB6851
:1022C000DA43FB681340FB607B1C1A78FB1C1B780D
:1022D000083B9B009A401300BB60FA68BB6813433D
:1022E000FB607B68FA681A611DE07B685B69FB60D4
:1022F000FB1C1B789B000F229A401300BB60BB683D
:10230000DA43FB681340FB607B1C1A78FB1C1B78CC
:102310009B009A401300BB60FA68BB681343FB60E4
:102320007B68FA685A61BB1C1B78062B24D87B6833
:102330009B6BFB60BB1C1B785A1E13009B009B18F9
:102340000F229A401300BB60BB68DA43FB6813405E
:10235000FB60FB1C1978BB1C1B785A1E13009B00EA
:102360009B1899400B00BB60FA68BB681343FB6085
:102370007B68FA689A634EE0BB1C1B780C2B24D850
:102380007B685B6BFB60BB1C1B78DA1F13009B0038
:102390009B180F229A401300BB60BB68DA43FB68AE
:1023A0001340FB60FB1C1978BB1C1B78DA1F130061
:1023B0009B009B1899400B00BB60FA68BB681343F5
:1023C000FB607B68FA685A6325E07B681B6BFB60E7
:1023D000BB1C1B780D3B1A0013009B009B180F229F
:1023E0009A401300BB60BB68DA43FB681340FB6094
:1023F000FB1C1978BB1C1B780D3B1A0013009B00BB
:102400009B1899400B00BB60FA68BB681343FB60E4
:102410007B68FA681A63C046BD4605B090BD80B5BA
:1024200082B000AF78600A00FB1C1A70FB1C1B789E
:10243000002B07D07B689B68802252031A437B687D
:102440009A6005E07B689B68034A1A407B689A6043
:10245000C046BD4602B080BDFFFFEFFF80B582B031
:1024600000AF78607B681B6D9BB21800BD4602B060
:1024700080BD80B582B000AF78600A00FB1C1A7086
:10248000FB1C1B78002B07D07B685B688022D20086
:102490001A437B685A6005E07B685B68034A1A4010
:1024A0007B685A60C046BD4602B080BDFFFBFFFF9F
:1024B00080B582B000AF78600A00FB1C1A70FB1C6C
:1024C0001B78002B07D07B685B68802252011A437F
:1024D0007B685A6005E07B685B68044A1A407B6849
:1024E0005A60C046BD4602B080BDC046FFEFFFFF48
:1024F00080B584B000AF786039600023FB607B68F2
:102500009B68FB60FB68074A1340FB60FA683B6806
:102510001343FB607B68FA689A60C046BD4604B00E
:1025200080BDC046FF8FFFFF80B582B000AF7860EE
:102530000A00FB1C1A70FB1C1B78002B07D07B6861
:102540009B68802212021A437B689A6005E07B68D0
:102550009B68044A1A407B689A60C046BD4602B038
:1025600080BDC046FF7FFFFF80B582B000AF7860BE
:102570000A00FB1C1A70FB1C1B78002B07D07B6821
:102580009B68822292031A437B689A6005E07B680D
:102590009B68044A1A407B689A60C046BD4602B0F8
:1025A00080BDC046FF7FDFFF80B584B000AF78609C
:1025B0000F217B1800221A707B689A6880239B0386
:1025C000134003D07B1801221A7003E00F23FB187D
:1025D00000221A700F23FB181B781800BD4604B0A8
:1025E00080BD90B587B000AF78600C001000190076
:1025F000FB1C221C1A70BB1C021C1A707B1C0A1CC0
:102600001A7000237B6100233B610023FB60FB1CED
:102610001B78072B20D97B681B697B61FB1C1B780F
:10262000083B9B000F229A4013003B613B69DA4351
:102630007B6913407B617B1C1A78FB1C1B78083B71
:102640009B009A4013003B617A693B6913437B61AD
:102650007B687A691A611DE07B685B697B61FB1CA2
:102660001B789B000F229A4013003B613B69DA43C1
:102670007B6913407B617B1C1A78FB1C1B789B00D9
:102680009A4013003B617A693B6913437B617B6825
:102690007A695A617B68DB6B7B617B691B0D032266
:1026A0001340FB60FB68DBB2BA1C1278D31ADBB2B2
:1026B0000233DBB21A0013009B009B180F229A40D2
:1026C00013003B613B69DA437B6913407B61FB1C70
:1026D0001A78FB68DBB2B91C0978CB1ADBB202337B
:1026E000DBB219000B009B005B189A4013003B61A2
:1026F0007A693B6913437B617B687A69DA63C04618
:10270000BD4607B090BD80B584B000AF78600A00C8
:10271000FB1C1A700023FB600023BB607B68DB6B33
:10272000FB60FB68094A1340FB60FB1C1B78013B04
:10273000BB60BB681B05FA681343FB607B68FA68E3
:10274000DA63C046BD4604B080BDC046FFFFCFFF80
:1027500080B584B000AF786008001100FB1C021C3B
:102760001A703B000A1C1A800023FB607B68FB6028
:10277000FB1C1A78FB68D318FB60FB683A001288D0
:102780001A60C046BD4604B080BD80B584B000AFBD
:1027900078600A00FB1C1A700023FB607B68FB60FA
:1027A000FB1C1A78FB68D3182833FB60FB681B6896
:1027B0009BB21800BD4604B080BD80B584B000AFA8
:1027C000786039600023FB607B685B68FB60FB68B6
:1027D000064A1340FB60FA683B681343FB607B6862
:1027E000FA685A60C046BD4604B080BDFFFD3FFF99
:1027F00080B582B000AF786008001100BB1C021CDD
:102800001A803B000A1C1A80BB1C1A887B689A62DB
:102810003B001A887B68DA62C046BD4602B080BDC4
:1028200080B584B000AF78600A00FB1C1A700023EA
:10283000FB607B685B68FB60FB681F229343FB6067
:10284000FB1C1B78FA681343FB607B68FA685A60CC
:10285000C046BD4604B080BD80B582B000AF020066
:10286000FB1D1A70FB1D1B78002B07D0084B9A68C4
:10287000074B802109040A439A6005E0044B9A68DB
:10288000034B04490A409A60C046BD4602B080BD71
:1028900000080240FFFF7FFF80B582B000AF02005A
:1028A000FB1D1A70FB1D1B78002B06D0084B5A6DC0
:1028B000074B02210A435A6505E0054B5A6D044B4C
:1028C00002218A435A65C046BD4602B080BDC0465B
:1028D0000008024080B582B000AF78607B685B6D15
:1028E000102293431A007B685A65C046BD4602B069
:1028F00080BD80B582B000AF78607B685B6D1022D0
:102900001A437B685A65C046BD4602B080BD80B59B
:1029100084B000AF78600A00FB1C1A700F217B188E
:1029200000221A707B681B68FA1C1278134003D0CF
:102930007B1801221A7003E00F23FB1800221A7083
:102940000F23FB181B781800BD4604B080BD80B56E
:1029500082B000AF78600A00FB1C1A70FB1C1B7869
:10296000DB437F221A407B681A60C046BD4602B036
:1029700080BD80B586B000AF78600A00BB1C1A80AD
:1029800017217B1800221A7000233B610023FB6093
:10299000BB1C1B881B0A9BB23B617B685B68BA1C33
:1029A0001288D2B21340FB607B681B683A691340FF
:1029B00006D0FB68002B03D07B1801221A7003E0BD
:1029C0001723FB1800221A701723FB181B78180016
:1029D000BD4606B080BD80B584B000AF78600A0007
:1029E000BB1C1A800F217B1800221A70BB1C1B888D
:1029F0001B0A9AB27B181A707B181B78DB437F2264
:102A00001A407B681A60C046BD4604B080BD80B5E0
:102A100084B000AF786039600023FB607B685B6D39
:102A2000FB603B681B78002B04D0FB68012213433A
:102A3000FB6003E0FB6801229343FB603B685B782B
:102A4000002B04D0FB6802221343FB6003E0FB6809
:102A500002229343FB603B689B78002B05D0FB6808
:102A6000802292001343FB6003E0FB68114A13408D
:102A7000FB603B68DB78002B05D0FB6880225200AE
:102A80001343FB6003E0FB680B4A1340FB60FB68E9
:102A900010229343FB603B681B79012B03D1FB6839
:102AA00010221343FB607B68FA685A65C046BD4636
:102AB00004B080BDFFFDFFFFFFFEFFFF80B584B0C7
:102AC00000AF78600A00FB1C1A700F217B180022EF
:102AD0001A707B685B6DFA1C1278134003D07B1868
:102AE00001221A7003E00F23FB1800221A700F2333
:102AF000FB181B781800BD4604B080BD80B582B0BD
:102B000000AF02003960FB1D1A70FB1D1B78002B03
:102B10000ED180235B0000211800FEF7ABF93B6863
:102B20001800FEF7D1F90A4B1800FFF7D3FE0BE0AF
:102B30003B6801211800FEF79DF90020FEF7C4F95B
:102B4000034B1800FFF7D5FEC046BD4602B080BD5E
:102B50000008024090B587B000AF78600C0010000C
:102B60001900FB1C221C1A70BB1C021C1A707B1C57
:102B70000A1C1A7000237B6100233B610023FB6069
:102B80000023BB607B68DB6B7B617B691B0D0322D1
:102B90001340FB60FB68DBB2BA1C1278D31ADBB2BD
:102BA0000233DBB21A0013005B009B1804330722C8
:102BB0009A4013003B617B68DB6D7B613B69DA43C4
:102BC0007B6913407B61FB1C1A78FB68DBB2B91C84
:102BD0000978CB1ADBB20233DBB219000B005B00C1
:102BE0005B1804339A4013003B617A693B691343D5
:102BF0007B617B687A69DA65FB68DBB2BA1C1278A4
:102C0000D31ADBB20233DBB21A0001239340BB605C
:102C1000BB68DA437B6913407B617B1C1B78FA68D5
:102C2000D2B2B91C09788A1AD2B20232D2B2934017
:102C3000BB607A69BB6813437B617B687A69DA653C
:102C4000C046BD4607B090BD80B584B000AF786087
:102C50000A00BB1C1A800023FB600023BB607B685A
:102C6000DB6DFB60FB68094A1340FB60BB1C1B88E3
:102C7000BB60BB681B04FA681343FB607B68FA689F
:102C8000DA65C046BD4604B080BDC046FFFF00FC0B
:102C900080B582B000AF7860034B7A68DA65C046D1
:102CA000BD4602B080BDC0460008024080B500AFFE
:102CB000024BDB6D1800BD4680BDC04600080240D7
:102CC000002934D00123002210B488422CD30124DF
:102CD0002407A14204D2814202D209011B01F8E774
:102CE000E400A14204D2814202D249005B00F8E72D
:102CF000884201D3401A1A434C08A04202D3001B59
:102D00005C0822438C08A04202D3001B9C0822438B
:102D1000CC08A04202D3001BDC082243002803D0C9
:102D20001B0901D00909E3E7100010BC704701B589
:102D3000002000F00BF802BD0029F8D003B5FFF722
:102D4000C1FF0EBC4243891A1847C0467047C046AF
:102D500010B5010000230022002000F04DF810BD46
:102D600070B50D4B0D4D5E1BB610AB4205D0002467
:102D700008CD01349847A642FAD800F0EBF8084B8A
:102D8000084D5E1BB610AB4205D0002408CD0134BF
:102D90009847A642FAD870BDFC2F0008FC2F000807
:102DA00004300008FC2F000870B5074C074D641B69
:102DB000A41005D0013CA300EB589847002CF9D192
:102DC00000F0CEF870BDC04608300008043000089E
:102DD0007047C0467047C0467047C0467047C046FF
:102DE0007047C0467047C0460120704701207047B9
:102DF0007047C0467047C046F0B5D6464F46464677
:102E00009846244BC0B5060018689A460F009146B4
:102E1000FFF7E8FF204B1D68002D32D053466C6849
:102E200018681F2C30DC002E0CD1631C0234A40067
:102E30006B606751FFF7DEFF0020E0BCBA46B14689
:102E4000A846F0BD49468822A300EB189950C4213A
:102E500049008C46AC446146873AA24009689146D5
:102E60001143624611608421424649005A50022EA5
:102E7000DBD129004A468D31FF310B6813430B60CB
:102E8000D3E7064D1D60C9E7FFF7B4FF01204042BC
:102E9000D3E7C04604000020B8010020280000202D
:102EA00010B5064C2378002B07D1054B002B02D020
:102EB000044800E000BF0123237010BDBC010020C6
:102EC00000000000542F0008044B10B5002B03D065
:102ED0000349044800E000BF10BDC04600000000E8
:102EE000C0010020542F00080D4885460D480E49AA
:102EF0000E4A002302E0D458C4500433C4188C4254
:102F0000F9D30B4A0B4C002301E013600432A242B8
:102F1000FBD3FDF75DFBFFF723FFFDF71BFBFEE790
:102F200000200020000000200800002008300008D9
:102F300008000020D8010020FEE70000034B10B578
:102F4000002B02D00248FFF703FF10BD0000000075
:102F5000A92D0008F8B5C046F8BC08BC9E467047CD
:0C2F6000F8B5C046F8BC08BC9E4670479F
:102F6C00205600000D0A4E33324730333120414495
:102F7C00432D3E555341525420403131353230307F
:102F8C002C204348303D5041300D0A004144433D14
:102F9C00000000002020563D000000000D0A00003B
:102FAC0000000000000000000102030406070809ED
:102FBC0000000000010203040102030406070809D3
:102FCC0001020406080A0C102020202020202020BA
:102FDC00010002000400060008000A000C001000AA
:102FEC0020004000800000010001000100010001F0
:082FFC003D2F0008C92E00085A
:04300400A12E0008F1
:08300800006CDC022000002036
:0400000508002EE9D8
:00000001FF
